{
  "contractName": "App",
  "abi": [
    {
      "inputs": [],
      "stateMutability": "nonpayable",
      "type": "constructor"
    },
    {
      "inputs": [],
      "name": "stepChain",
      "outputs": [
        {
          "internalType": "contract StepChain",
          "name": "",
          "type": "address"
        }
      ],
      "stateMutability": "view",
      "type": "function",
      "constant": true
    },
    {
      "inputs": [
        {
          "internalType": "uint256",
          "name": "",
          "type": "uint256"
        }
      ],
      "name": "supplyChainList",
      "outputs": [
        {
          "internalType": "address",
          "name": "",
          "type": "address"
        }
      ],
      "stateMutability": "view",
      "type": "function",
      "constant": true
    },
    {
      "inputs": [
        {
          "internalType": "uint256",
          "name": "",
          "type": "uint256"
        }
      ],
      "name": "userAddresses",
      "outputs": [
        {
          "internalType": "address",
          "name": "",
          "type": "address"
        }
      ],
      "stateMutability": "view",
      "type": "function",
      "constant": true
    },
    {
      "inputs": [
        {
          "internalType": "address",
          "name": "",
          "type": "address"
        }
      ],
      "name": "userList",
      "outputs": [
        {
          "internalType": "string",
          "name": "name",
          "type": "string"
        },
        {
          "internalType": "string",
          "name": "location",
          "type": "string"
        },
        {
          "internalType": "uint256",
          "name": "postCode",
          "type": "uint256"
        },
        {
          "internalType": "uint256",
          "name": "phoneNumber",
          "type": "uint256"
        },
        {
          "internalType": "string",
          "name": "email",
          "type": "string"
        },
        {
          "internalType": "uint256",
          "name": "createdAt",
          "type": "uint256"
        },
        {
          "internalType": "bool",
          "name": "init",
          "type": "bool"
        }
      ],
      "stateMutability": "view",
      "type": "function",
      "constant": true
    },
    {
      "inputs": [
        {
          "internalType": "string",
          "name": "_productName",
          "type": "string"
        },
        {
          "internalType": "address",
          "name": "_seller",
          "type": "address"
        },
        {
          "internalType": "address",
          "name": "_buyer",
          "type": "address"
        },
        {
          "internalType": "address",
          "name": "_carrier",
          "type": "address"
        },
        {
          "internalType": "address",
          "name": "_certifier",
          "type": "address"
        },
        {
          "internalType": "uint256",
          "name": "_price",
          "type": "uint256"
        },
        {
          "internalType": "uint256",
          "name": "_carrierPrice",
          "type": "uint256"
        },
        {
          "internalType": "uint256",
          "name": "_duration",
          "type": "uint256"
        }
      ],
      "name": "createSupplyChain",
      "outputs": [],
      "stateMutability": "nonpayable",
      "type": "function"
    },
    {
      "inputs": [],
      "name": "getSupplyChainList",
      "outputs": [
        {
          "internalType": "address[]",
          "name": "",
          "type": "address[]"
        }
      ],
      "stateMutability": "view",
      "type": "function",
      "constant": true
    },
    {
      "inputs": [
        {
          "internalType": "string",
          "name": "_name",
          "type": "string"
        },
        {
          "internalType": "string",
          "name": "_location",
          "type": "string"
        },
        {
          "internalType": "uint256",
          "name": "_postCode",
          "type": "uint256"
        },
        {
          "internalType": "uint256",
          "name": "_phoneNumber",
          "type": "uint256"
        },
        {
          "internalType": "string",
          "name": "_email",
          "type": "string"
        }
      ],
      "name": "newUser",
      "outputs": [],
      "stateMutability": "nonpayable",
      "type": "function"
    },
    {
      "inputs": [],
      "name": "getUsers",
      "outputs": [
        {
          "components": [
            {
              "internalType": "string",
              "name": "name",
              "type": "string"
            },
            {
              "internalType": "string",
              "name": "location",
              "type": "string"
            },
            {
              "internalType": "uint256",
              "name": "postCode",
              "type": "uint256"
            },
            {
              "internalType": "uint256",
              "name": "phoneNumber",
              "type": "uint256"
            },
            {
              "internalType": "string",
              "name": "email",
              "type": "string"
            },
            {
              "internalType": "uint256",
              "name": "createdAt",
              "type": "uint256"
            },
            {
              "internalType": "bool",
              "name": "init",
              "type": "bool"
            }
          ],
          "internalType": "struct App.User[]",
          "name": "",
          "type": "tuple[]"
        },
        {
          "internalType": "address[]",
          "name": "",
          "type": "address[]"
        }
      ],
      "stateMutability": "view",
      "type": "function",
      "constant": true
    }
  ],
  "bytecode": "0x60806040526040516100109061005f565b604051809103906000f08015801561002c573d6000803e3d6000fd5b50600180546001600160a01b0319166001600160a01b039290921691909117905534801561005957600080fd5b5061006c565b610c6e806139a583390190565b61392a8061007b6000396000f3fe60806040523480156200001157600080fd5b5060043610620000815760003560e01c8062ce8e3e146200008657806317fd77b014620000a95780631b4e7bd214620000d957806343340e911462000105578063502c9bd51462000119578063d678a57d1462000130578063d9406a4c1462000149578063ef7951241462000162575b600080fd5b6200009062000179565b604051620000a092919062000b16565b60405180910390f35b620000c0620000ba36600462000bfe565b6200050d565b6040516001600160a01b039091168152602001620000a0565b620000f0620000ea36600462000c35565b62000538565b604051620000a0979695949392919062000c5a565b600154620000c0906001600160a01b031681565b620000c06200012a36600462000bfe565b62000726565b6200013a62000737565b604051620000a0919062000cc1565b620001606200015a36600462000d80565b6200079b565b005b620001606200017336600462000e26565b62000837565b60608060006003805490506001600160401b038111156200019e576200019e62000cd6565b6040519080825280602002602001820160405280156200021457816020015b620002006040518060e001604052806060815260200160608152602001600081526020016000815260200160608152602001600081526020016000151581525090565b815260200190600190039081620001bd5790505b50905060005b600354811015620004a25760026000600383815481106200023f576200023f62000ecb565b60009182526020808320909101546001600160a01b031683528201929092526040908101909120815160e08101909252805482908290620002809062000ee1565b80601f0160208091040260200160405190810160405280929190818152602001828054620002ae9062000ee1565b8015620002ff5780601f10620002d357610100808354040283529160200191620002ff565b820191906000526020600020905b815481529060010190602001808311620002e157829003601f168201915b505050505081526020016001820180546200031a9062000ee1565b80601f0160208091040260200160405190810160405280929190818152602001828054620003489062000ee1565b8015620003995780601f106200036d5761010080835404028352916020019162000399565b820191906000526020600020905b8154815290600101906020018083116200037b57829003601f168201915b505050505081526020016002820154815260200160038201548152602001600482018054620003c89062000ee1565b80601f0160208091040260200160405190810160405280929190818152602001828054620003f69062000ee1565b8015620004475780601f106200041b5761010080835404028352916020019162000447565b820191906000526020600020905b8154815290600101906020018083116200042957829003601f168201915b50505091835250506005820154602082015260069091015460ff161515604090910152825183908390811062000481576200048162000ecb565b60200260200101819052508080620004999062000f1e565b9150506200021a565b5080600380805480602002602001604051908101604052809291908181526020018280548015620004fd57602002820191906000526020600020905b81546001600160a01b03168152600190910190602001808311620004de575b5050505050905092509250509091565b600081815481106200051e57600080fd5b6000918252602090912001546001600160a01b0316905081565b600260205260009081526040902080548190620005559062000ee1565b80601f0160208091040260200160405190810160405280929190818152602001828054620005839062000ee1565b8015620005d45780601f10620005a857610100808354040283529160200191620005d4565b820191906000526020600020905b815481529060010190602001808311620005b657829003601f168201915b505050505090806001018054620005eb9062000ee1565b80601f0160208091040260200160405190810160405280929190818152602001828054620006199062000ee1565b80156200066a5780601f106200063e576101008083540402835291602001916200066a565b820191906000526020600020905b8154815290600101906020018083116200064c57829003601f168201915b5050505050908060020154908060030154908060040180546200068d9062000ee1565b80601f0160208091040260200160405190810160405280929190818152602001828054620006bb9062000ee1565b80156200070c5780601f10620006e0576101008083540402835291602001916200070c565b820191906000526020600020905b815481529060010190602001808311620006ee57829003601f168201915b50505050600583015460069093015491929160ff16905087565b600381815481106200051e57600080fd5b606060008054806020026020016040519081016040528092919081815260200182805480156200079157602002820191906000526020600020905b81546001600160a01b0316815260019091019060200180831162000772575b5050505050905090565b60008888888888888888600160009054906101000a90046001600160a01b0316604051620007c990620009cc565b620007dd9998979695949392919062000f48565b604051809103906000f080158015620007fa573d6000803e3d6000fd5b5081546001810183556000928352602090922090910180546001600160a01b0319166001600160a01b039092169190911790555050505050505050565b3360009081526002602052604090206006015460ff1615620008b35760405162461bcd60e51b815260206004820152602b60248201527f5573657220616c72656164792065786973747320666f72207468652072656c6160448201526a1d1959081858d8dbdd5b9d60aa1b606482015260840160405180910390fd5b6040805160e081018252868152602080820187905281830186905260608201859052608082018490524260a0830152600160c0830152336000908152600282529290922081518051929384936200090e9284920190620009da565b506020828101518051620009299260018501920190620009da565b506040820151600282015560608201516003820155608082015180516200095b916004840191602090910190620009da565b5060a0820151600582015560c0909101516006909101805491151560ff199092169190911790555050600380546001810182556000919091527fc2575a0e9e593c00f959f8c92f12db2869c3395a3b0502d05e2516446f71f85b0180546001600160a01b0319163317905550505050565b6129488062000fad83390190565b828054620009e89062000ee1565b90600052602060002090601f01602090048101928262000a0c576000855562000a57565b82601f1062000a2757805160ff191683800117855562000a57565b8280016001018555821562000a57579182015b8281111562000a5757825182559160200191906001019062000a3a565b5062000a6592915062000a69565b5090565b5b8082111562000a65576000815560010162000a6a565b6000815180845260005b8181101562000aa85760208185018101518683018201520162000a8a565b8181111562000abb576000602083870101525b50601f01601f19169290920160200192915050565b600081518084526020808501945080840160005b8381101562000b0b5781516001600160a01b03168752958201959082019060010162000ae4565b509495945050505050565b60006040808301818452808651808352606092508286019150828160051b8701016020808a0160005b8481101562000bdc57605f198a8503018652815160e0815181875262000b688288018262000a80565b915050848201518682038688015262000b82828262000a80565b915050898201518a87015288820151898701526080808301518783038289015262000bae838262000a80565b60a085810151908a015260c09485015115159490980193909352505050948201949082019060010162000b3f565b50508782039088015262000bf1818962000ad0565b9998505050505050505050565b60006020828403121562000c1157600080fd5b5035919050565b80356001600160a01b038116811462000c3057600080fd5b919050565b60006020828403121562000c4857600080fd5b62000c538262000c18565b9392505050565b60e08152600062000c6f60e083018a62000a80565b828103602084015262000c83818a62000a80565b9050876040840152866060840152828103608084015262000ca5818762000a80565b60a0840195909552505090151560c09091015295945050505050565b60208152600062000c53602083018462000ad0565b634e487b7160e01b600052604160045260246000fd5b600082601f83011262000cfe57600080fd5b81356001600160401b038082111562000d1b5762000d1b62000cd6565b604051601f8301601f19908116603f0116810190828211818310171562000d465762000d4662000cd6565b8160405283815286602085880101111562000d6057600080fd5b836020870160208301376000602085830101528094505050505092915050565b600080600080600080600080610100898b03121562000d9e57600080fd5b88356001600160401b0381111562000db557600080fd5b62000dc38b828c0162000cec565b98505062000dd460208a0162000c18565b965062000de460408a0162000c18565b955062000df460608a0162000c18565b945062000e0460808a0162000c18565b979a969950949793969560a0850135955060c08501359460e001359350915050565b600080600080600060a0868803121562000e3f57600080fd5b85356001600160401b038082111562000e5757600080fd5b62000e6589838a0162000cec565b9650602088013591508082111562000e7c57600080fd5b62000e8a89838a0162000cec565b95506040880135945060608801359350608088013591508082111562000eaf57600080fd5b5062000ebe8882890162000cec565b9150509295509295909350565b634e487b7160e01b600052603260045260246000fd5b600181811c9082168062000ef657607f821691505b6020821081141562000f1857634e487b7160e01b600052602260045260246000fd5b50919050565b600060001982141562000f4157634e487b7160e01b600052601160045260246000fd5b5060010190565b600061012080835262000f5e8184018d62000a80565b6001600160a01b039b8c166020850152998b16604084015250509588166060870152938716608086015260a085019290925260c084015260e08301529092166101009092019190915291905056fe600c805463ffffffff1916905560c06040526000608081815260a0919091526200002e9060109060026200010c565b503480156200003c57600080fd5b5060405162002948380380620029488339810160408190526200005f9162000228565b8851620000749060009060208c019062000161565b50600280546001600160a01b03998a166001600160a01b03199182161790915560038054988a169882169890981790975560048054968916968816969096179095556000600d556005805494881694871694909417909355600891909155600955600755600180549092163317909155600c80549190921664010000000002600160201b600160c01b031990911617905550620003be565b8280548282559060005260206000209081019282156200014f579160200282015b828111156200014f578251829060ff169055916020019190600101906200012d565b506200015d929150620001de565b5090565b8280546200016f9062000381565b90600052602060002090601f0160209004810192826200019357600085556200014f565b82601f10620001ae57805160ff19168380011785556200014f565b828001600101855582156200014f579182015b828111156200014f578251825591602001919060010190620001c1565b5b808211156200015d5760008155600101620001df565b634e487b7160e01b600052604160045260246000fd5b80516001600160a01b03811681146200022357600080fd5b919050565b60008060008060008060008060006101208a8c0312156200024857600080fd5b89516001600160401b03808211156200026057600080fd5b818c0191508c601f8301126200027557600080fd5b8151818111156200028a576200028a620001f5565b604051601f8201601f19908116603f01168101908382118183101715620002b557620002b5620001f5565b81604052828152602093508f84848701011115620002d257600080fd5b600091505b82821015620002f65784820184015181830185015290830190620002d7565b82821115620003085760008484830101525b9c506200031a9150508c82016200020b565b995050506200032c60408b016200020b565b96506200033c60608b016200020b565b95506200034c60808b016200020b565b945060a08a0151935060c08a0151925060e08a01519150620003726101008b016200020b565b90509295985092959850929598565b600181811c908216806200039657607f821691505b60208210811415620003b857634e487b7160e01b600052602260045260246000fd5b50919050565b61257a80620003ce6000396000f3fe6080604052600436106101b55760003560e01c8063032be250146101ba57806304a0e751146101d157806308551a53146101fc5780630fb5a6b41461022957806312065fe01461024d578063120c7efd1461026257806319527f5c14610282578063228ed4a1146102a25780632bdc32ff146102d25780632e520643146102f257806334d2c0ad146103125780633ccfd60b1461033457806343340e91146103495780634735409614610370578063528c87d21461038f5780635caca098146103ee5780637150d8ae146104035780637a4e7006146104235780637bb9ada1146104395780637d3024fc146104665780637f7650eb146104865780638da5cb5b146104a8578063a035b1fe146104c8578063a039415c146104de578063a26759cb146104ff578063a79a9f4b14610507578063aee7fc1814610527578063bbe6b70114610547578063c89f2ce414610567578063d1fee7b31461057d578063d9aba9ce14610592578063dbfadd4d146105bf578063e0f6ef87146105df578063e1c7392a146105f5578063ef0ebbde1461060f578063f14f2c571461062f578063f3f437031461064f578063f779e8531461067c575b600080fd5b3480156101c657600080fd5b506101cf61069c565b005b3480156101dd57600080fd5b506101e66106d0565b6040516101f39190611e84565b60405180910390f35b34801561020857600080fd5b5060025461021c906001600160a01b031681565b6040516101f39190611ed1565b34801561023557600080fd5b5061023f60075481565b6040519081526020016101f3565b34801561025957600080fd5b5061023f610732565b34801561026e57600080fd5b5060055461021c906001600160a01b031681565b34801561028e57600080fd5b5061021c61029d366004611ee5565b610776565b3480156102ae57600080fd5b50600c546102c29062010000900460ff1681565b60405190151581526020016101f3565b3480156102de57600080fd5b5060045461021c906001600160a01b031681565b3480156102fe57600080fd5b506101cf61030d366004611f13565b6107a0565b34801561031e57600080fd5b50610327610960565b6040516101f39190611f7f565b34801561034057600080fd5b506101cf610a1b565b34801561035557600080fd5b50600c5461021c90600160201b90046001600160a01b031681565b34801561037c57600080fd5b50600c546102c290610100900460ff1681565b34801561039b57600080fd5b506103af6103aa366004611ee5565b610a60565b604080519687526001600160a01b03909516602087015292151593850193909352151560608401529015156080830152151560a082015260c0016101f3565b3480156103fa57600080fd5b506101cf610ac1565b34801561040f57600080fd5b5060035461021c906001600160a01b031681565b34801561042f57600080fd5b5061023f60095481565b34801561044557600080fd5b5061023f610454366004611f13565b600f6020526000908152604090205481565b34801561047257600080fd5b5061023f610481366004611ee5565b610aef565b34801561049257600080fd5b5061049b610b10565b6040516101f39190611fc1565b3480156104b457600080fd5b5060015461021c906001600160a01b031681565b3480156104d457600080fd5b5061023f60085481565b3480156104ea57600080fd5b50600c546102c2906301000000900460ff1681565b6101cf610b9e565b34801561051357600080fd5b506101cf610522366004611f13565b610c2a565b34801561053357600080fd5b506101cf610542366004611f13565b610ef8565b34801561055357600080fd5b506101cf610562366004611ee5565b610ff8565b34801561057357600080fd5b5061023f60065481565b34801561058957600080fd5b506101cf6111fc565b34801561059e57600080fd5b506105b26105ad366004611f13565b61122c565b6040516101f39190612016565b3480156105cb57600080fd5b506101cf6105da366004611f13565b61130a565b3480156105eb57600080fd5b5061023f600d5481565b34801561060157600080fd5b50600c546102c29060ff1681565b34801561061b57600080fd5b506101cf61062a3660046120dd565b611473565b34801561063b57600080fd5b5061021c61064a366004612119565b61149d565b34801561065b57600080fd5b5061023f61066a366004611f13565b600a6020526000908152604090205481565b34801561068857600080fd5b506101cf610697366004611f13565b611a3d565b6005546001600160a01b031633146106b357600080fd5b600c805463ff000000191663010000001790556106ce611ba6565b565b6060600b80548060200260200160405190810160405280929190818152602001828054801561072857602002820191906000526020600020905b81546001600160a01b0316815260019091019060200180831161070a575b5050505050905090565b6003546000906001600160a01b031633148061075857506001546001600160a01b031633145b1561076257504790565b50336000908152600a602052604090205490565b600b818154811061078657600080fd5b6000918252602090912001546001600160a01b0316905081565b6040805160018082528183019092526000916020808301908036833701905050600c546040516316c4f15960e11b8152919250600160201b90046001600160a01b031690632d89e2b2906107f8908590600401611ed1565b60206040518083038186803b15801561081057600080fd5b505afa158015610824573d6000803e3d6000fd5b505050506040513d601f19601f82011682018060405250810190610848919061215f565b8160008151811061085b5761085b612178565b6020026020010181815250506001600e600f6000856001600160a01b03166001600160a01b0316815260200190815260200160002054815481106108a1576108a1612178565b60009182526020909120600290910201600101805460ff60b01b1916600160b01b92151592909202919091179055600c5460405163bd8acf4560e01b8152600160201b9091046001600160a01b03169063bd8acf4590610909908590859033906004016121c9565b602060405180830381600087803b15801561092357600080fd5b505af1158015610937573d6000803e3d6000fd5b505050506040513d601f19601f8201168201806040525081019061095b919061215f565b505050565b6060600e805480602002602001604051908101604052809291908181526020016000905b82821015610a125760008481526020908190206040805160c08101825260028602909201805483526001908101546001600160a01b0381168486015260ff600160a01b82048116151593850193909352600160a81b8104831615156060850152600160b01b8104831615156080850152600160b81b9004909116151560a08301529083529092019101610984565b50505050905090565b336000818152600a6020526040808220805490839055905190929183156108fc02918491818181858888f19350505050158015610a5c573d6000803e3d6000fd5b5050565b600e8181548110610a7057600080fd5b6000918252602090912060029091020180546001909101549091506001600160a01b0381169060ff600160a01b8204811691600160a81b8104821691600160b01b8204811691600160b81b90041686565b6002546001600160a01b03163314610ad857600080fd5b600c805461ff0019166101001790556106ce611ba6565b60108181548110610aff57600080fd5b600091825260209091200154905081565b60008054610b1d90612223565b80601f0160208091040260200160405190810160405280929190818152602001828054610b4990612223565b8015610b965780601f10610b6b57610100808354040283529160200191610b96565b820191906000526020600020905b815481529060010190602001808311610b7957829003601f168201915b505050505081565b6003546001600160a01b03163314610bf95760405162461bcd60e51b815260206004820152601960248201527827b7363c90313abcb2b91031b0b71030b23210333ab732399760391b60448201526064015b60405180910390fd5b6003546001600160a01b03166000908152600a602052604081208054349290610c2390849061226e565b9091555050565b6040805160018082528183019092526000916020808301908036833701905050600c546040516316c4f15960e11b8152919250600160201b90046001600160a01b031690632d89e2b290610c82908590600401611ed1565b60206040518083038186803b158015610c9a57600080fd5b505afa158015610cae573d6000803e3d6000fd5b505050506040513d601f19601f82011682018060405250810190610cd2919061215f565b81600081518110610ce557610ce5612178565b6020908102919091010152600c5460405163bd8acf4560e01b8152600160201b9091046001600160a01b03169063bd8acf4590610d2a90859085903390600401612286565b602060405180830381600087803b158015610d4457600080fd5b505af1158015610d58573d6000803e3d6000fd5b505050506040513d601f19601f82011682018060405250810190610d7c919061215f565b506009546004546001600160a01b03166000908152600a602052604081208054909190610daa90849061226e565b90915550506009546003546001600160a01b03166000908152600a602052604081208054909190610ddc9084906122dd565b90915550506001600160a01b0382166000908152600f6020526040812054600e80549091908110610e0f57610e0f612178565b906000526020600020906002020160000154905060085481610e3191906122f4565b6002546001600160a01b03166000908152600a602052604081208054909190610e5b90849061226e565b9091555050600854610e6d90826122f4565b6003546001600160a01b03166000908152600a602052604081208054909190610e979084906122dd565b90915550506001600160a01b0383166000908152600f6020526040902054600e8054600192908110610ecb57610ecb612178565b906000526020600020906002020160010160176101000a81548160ff021916908315150217905550505050565b6040805160018082528183019092526000916020808301908036833701905050600c546040516316c4f15960e11b8152919250600160201b90046001600160a01b031690632d89e2b290610f50908590600401611ed1565b60206040518083038186803b158015610f6857600080fd5b505afa158015610f7c573d6000803e3d6000fd5b505050506040513d601f19601f82011682018060405250810190610fa0919061215f565b81600081518110610fb357610fb3612178565b6020908102919091010152600c5460405163bd8acf4560e01b8152600160201b9091046001600160a01b03169063bd8acf459061090990859085903390600401612313565b6002546001600160a01b031633148061101b57506003546001600160a01b031633145b6110765760405162461bcd60e51b815260206004820152602660248201527f4f6e6c792073656c6c6572206f722062757965722063616e206d6f6469667920604482015265383934b1b29760d11b6064820152608401610bf0565b6002546001600160a01b031633141561113f57601060018154811061109d5761109d612178565b90600052602060002001546000141580156110d557508060106001815481106110c8576110c8612178565b9060005260206000200154145b1561112a5780600881905550600060106000815481106110f7576110f7612178565b90600052602060002001819055506000601060018154811061111b5761111b612178565b60009182526020909120015550565b8060106000815481106110f7576110f7612178565b6003546001600160a01b03163314156111f957601060008154811061116657611166612178565b906000526020600020015460001415801561119e575080601060008154811061119157611191612178565b9060005260206000200154145b156111c05780600881905550600060106000815481106110f7576110f7612178565b8060106001815481106111d5576111d5612178565b90600052602060002001819055506000601060008154811061111b5761111b612178565b50565b6004546001600160a01b0316331461121357600080fd5b600c805462ff00001916620100001790556106ce611ba6565b6040805160c08101825260008082526020808301829052828401829052606083018290526080830182905260a083018290526001600160a01b0385168252600f90529190912054600e8054909190811061128857611288612178565b60009182526020918290206040805160c081018252600290930290910180548352600101546001600160a01b0381169383019390935260ff600160a01b84048116151591830191909152600160a81b8304811615156060830152600160b01b8304811615156080830152600160b81b909204909116151560a082015292915050565b6040805160018082528183019092526000916020808301908036833701905050600c546040516316c4f15960e11b8152919250600160201b90046001600160a01b031690632d89e2b290611362908590600401611ed1565b60206040518083038186803b15801561137a57600080fd5b505afa15801561138e573d6000803e3d6000fd5b505050506040513d601f19601f820116820180604052508101906113b2919061215f565b816000815181106113c5576113c5612178565b6020026020010181815250506001600e600f6000856001600160a01b03166001600160a01b03168152602001908152602001600020548154811061140b5761140b612178565b60009182526020909120600290910201600101805460ff60a81b1916600160a81b92151592909202919091179055600c5460405163bd8acf4560e01b8152600160201b9091046001600160a01b03169063bd8acf45906109099085908590339060040161236a565b6002546001600160a01b0316331461148a57600080fd5b8051610a5c90600b906020840190611e0a565b600b54815160009111156114e65760405162461bcd60e51b815260206004820152601060248201526f1b195b99dd1a081a5b98dbdc9c9958dd60821b6044820152606401610bf0565b600c5460ff1615156001146115385760405162461bcd60e51b815260206004820152601860248201527718dbdb9d1c9858dd081b9bdd081a5b9a5d1a585b1a5e995960421b6044820152606401610bf0565b6002546001600160a01b0316331461158b5760405162461bcd60e51b81526020600482015260166024820152752cb7ba9030b932903737ba103a34329039b2b63632b960511b6044820152606401610bf0565b6040516001600160601b03193360601b16602082015242603482015260009060540160408051601f19818403018152828252805160209182012060c084018352878452606090811c91840182905260019284019290925260009183018290526080830182905260a08301829052600b549093506001600160401b0381111561161557611615612024565b60405190808252806020026020018201604052801561163e578160200160208202803683370190505b509050600085516001600160401b0381111561165c5761165c612024565b604051908082528060200260200182016040528015611685578160200160208202803683370190505b50905060005b86518110156118115760005b600b5481101561173757600b81815481106116b4576116b4612178565b60009182526020909120015488516001600160a01b03909116906116f1908a90859081106116e4576116e4612178565b6020026020010151611bee565b6001600160a01b0316141561172557600184828151811061171457611714612178565b911515602092830291909101909101525b8061172f816123c4565b915050611697565b50600c60049054906101000a90046001600160a01b03166001600160a01b0316632d89e2b288838151811061176e5761176e612178565b60200260200101516040518263ffffffff1660e01b81526004016117929190611ed1565b60206040518083038186803b1580156117aa57600080fd5b505afa1580156117be573d6000803e3d6000fd5b505050506040513d601f19601f820116820180604052508101906117e2919061215f565b8282815181106117f4576117f4612178565b602090810291909101015280611809816123c4565b91505061168b565b5060005b600b548110156118975782818151811061183157611831612178565b60200260200101516118855760405162461bcd60e51b815260206004820181905260248201527f4d6f726520707265636564656e742070726f64756374732072657175697265646044820152606401610bf0565b8061188f816123c4565b915050611815565b50600e80546001810182556000918252845160029091027fbb7b4a454dc3493923482f07822329ed19e8244eff582cc204f8554c3620c3fd8101919091556020808601517fbb7b4a454dc3493923482f07822329ed19e8244eff582cc204f8554c3620c3fe909201805460408089015160608a015160808b015160a08c01511515600160b81b0260ff60b81b19911515600160b01b0260ff60b01b19931515600160a81b029390931661ffff60a81b19941515600160a01b026001600160a81b03199097166001600160a01b039a8b1617969096179390931694909417179290921691909117909155600d80549389168552600f9092528320829055909161199e836123c4565b9091555050600c5460405163bd8acf4560e01b8152600160201b9091046001600160a01b03169063bd8acf45906119dd908790859033906004016123df565b602060405180830381600087803b1580156119f757600080fd5b505af1158015611a0b573d6000803e3d6000fd5b505050506040513d601f19601f82011682018060405250810190611a2f919061215f565b509293505050505b92915050565b6040805160018082528183019092526000916020808301908036833701905050600c546040516316c4f15960e11b8152919250600160201b90046001600160a01b031690632d89e2b290611a95908590600401611ed1565b60206040518083038186803b158015611aad57600080fd5b505afa158015611ac1573d6000803e3d6000fd5b505050506040513d601f19601f82011682018060405250810190611ae5919061215f565b81600081518110611af857611af8612178565b6020026020010181815250506000600e600f6000856001600160a01b03166001600160a01b031681526020019081526020016000205481548110611b3e57611b3e612178565b60009182526020909120600290910201600101805460ff60a01b1916600160a01b92151592909202919091179055600c5460405163bd8acf4560e01b8152600160201b9091046001600160a01b03169063bd8acf459061090990859085903390600401612436565b600c54610100900460ff168015611bc55750600c5462010000900460ff165b8015611bda5750600c546301000000900460ff165b156106ce57600c805460ff19166001179055565b6000805b600b54811015611e04576000600b8281548110611c1157611c11612178565b60009182526020808320909101546040805163e0f6ef8760e01b815290516001600160a01b039092169450849263e0f6ef8792600480840193829003018186803b158015611c5e57600080fd5b505afa158015611c72573d6000803e3d6000fd5b505050506040513d601f19601f82011682018060405250810190611c96919061215f565b118015611d335750836001600160a01b0316816001600160a01b031663d9aba9ce866040518263ffffffff1660e01b8152600401611cd49190611ed1565b60c06040518083038186803b158015611cec57600080fd5b505afa158015611d00573d6000803e3d6000fd5b505050506040513d601f19601f82011682018060405250810190611d2491906124ab565b602001516001600160a01b0316145b8015611dbb5750604051636cd5d4e760e11b81526001600160a01b0382169063d9aba9ce90611d66908790600401611ed1565b60c06040518083038186803b158015611d7e57600080fd5b505afa158015611d92573d6000803e3d6000fd5b505050506040513d601f19601f82011682018060405250810190611db691906124ab565b60a001515b15611df157600b8281548110611dd357611dd3612178565b6000918252602090912001546001600160a01b03169250611e049050565b5080611dfc816123c4565b915050611bf2565b50919050565b828054828255906000526020600020908101928215611e5f579160200282015b82811115611e5f57825182546001600160a01b0319166001600160a01b03909116178255602090920191600190910190611e2a565b50611e6b929150611e6f565b5090565b5b80821115611e6b5760008155600101611e70565b6020808252825182820181905260009190848201906040850190845b81811015611ec55783516001600160a01b031683529284019291840191600101611ea0565b50909695505050505050565b6001600160a01b0391909116815260200190565b600060208284031215611ef757600080fd5b5035919050565b6001600160a01b03811681146111f957600080fd5b600060208284031215611f2557600080fd5b8135611f3081611efe565b9392505050565b805182526020808201516001600160a01b03169083015260408082015115159083015260608082015115159083015260808082015115159083015260a0908101511515910152565b6020808252825182820181905260009190848201906040850190845b81811015611ec557611fae838551611f37565b9284019260c09290920191600101611f9b565b600060208083528351808285015260005b81811015611fee57858101830151858201604001528201611fd2565b81811115612000576000604083870101525b50601f01601f1916929092016040019392505050565b60c08101611a378284611f37565b634e487b7160e01b600052604160045260246000fd5b600082601f83011261204b57600080fd5b813560206001600160401b038083111561206757612067612024565b8260051b604051601f19603f8301168101818110848211171561208c5761208c612024565b6040529384528581018301938381019250878511156120aa57600080fd5b83870191505b848210156120d25781356120c381611efe565b835291830191908301906120b0565b979650505050505050565b6000602082840312156120ef57600080fd5b81356001600160401b0381111561210557600080fd5b6121118482850161203a565b949350505050565b6000806040838503121561212c57600080fd5b8235915060208301356001600160401b0381111561214957600080fd5b6121558582860161203a565b9150509250929050565b60006020828403121561217157600080fd5b5051919050565b634e487b7160e01b600052603260045260246000fd5b600081518084526020808501945080840160005b838110156121be578151875295820195908201906001016121a2565b509495945050505050565b600060018060a01b038086168352608060208401526121eb608084018661218e565b81851660408501528381036060850152600b81526a21b2b93a34b334b2b2101960a91b60208201526040810192505050949350505050565b600181811c9082168061223757607f821691505b60208210811415611e0457634e487b7160e01b600052602260045260246000fd5b634e487b7160e01b600052601160045260246000fd5b6000821982111561228157612281612258565b500190565b600060018060a01b038086168352608060208401526122a8608084018661218e565b81851660408501528381036060850152600881526744656c697665727960c01b60208201526040810192505050949350505050565b6000828210156122ef576122ef612258565b500390565b600081600019048311821515161561230e5761230e612258565b500290565b600060018060a01b03808616835260806020840152612335608084018661218e565b81851660408501528381036060850152600881526714da1a5c1b595b9d60c21b60208201526040810192505050949350505050565b600060018060a01b0380861683526080602084015261238c608084018661218e565b81851660408501528381036060850152600b81526a436572746966696564203160a81b60208201526040810192505050949350505050565b60006000198214156123d8576123d8612258565b5060010190565b600060018060a01b03808616835260806020840152612401608084018661218e565b81851660408501528381036060850152600881526721b932b0ba34b7b760c11b60208201526040810192505050949350505050565b600060018060a01b03808616835260806020840152612458608084018661218e565b81851660408501528381036060850152601181527021b7b7b61031b430b4b710313937b5b2b760791b60208201526040810192505050949350505050565b805180151581146124a657600080fd5b919050565b600060c082840312156124bd57600080fd5b60405160c081016001600160401b03811182821017156124df576124df612024565b6040528251815260208301516124f481611efe565b602082015261250560408401612496565b604082015261251660608401612496565b606082015261252760808401612496565b608082015261253860a08401612496565b60a0820152939250505056fea26469706673582212203cc728b57bd5b7c548240365a79b47ab37765462cb9e1cf876c42e7864f48a5364736f6c63430008080033a26469706673582212205a5b26f34fad6f043129c26f79cd0160e473ad092d68b9965a7aad1ceb3eada464736f6c63430008080033608060405234801561001057600080fd5b50610c4e806100206000396000f3fe608060405234801561001057600080fd5b506004361061006d5760003560e01c80632d89e2b2146100725780635da65ada146100a55780636931b3ae146100ba5780636f0e823d146100c35780637217e0b9146100e657806397add3a514610109578063bd8acf4514610129575b600080fd5b6100926100803660046107fe565b60026020526000908152604090205481565b6040519081526020015b60405180910390f35b6100ad61013c565b60405161009c919061086d565b61009260015481565b6100d66100d136600461094a565b610336565b604051901515815260200161009c565b6100f96100f436600461094a565b610360565b60405161009c9493929190610963565b61011c61011736600461094a565b61041e565b60405161009c91906109a0565b610092610137366004610a99565b610481565b606060006001546001600160401b0381111561015a5761015a6109e4565b6040519080825280602002602001820160405280156101cf57816020015b6101bc6040518060a0016040528060006001600160a01b0316815260200160006001600160a01b031681526020016060815260200160608152602001600081525090565b8152602001906001900390816101785790505b50905060005b6001548110156103305760008181526020818152604091829020825160a08101845281546001600160a01b039081168252600183015416818401526002820180548551818602810186018752818152929593949386019383018282801561025b57602002820191906000526020600020905b815481526020019060010190808311610247575b5050505050815260200160038201805461027490610b84565b80601f01602080910402602001604051908101604052809291908181526020018280546102a090610b84565b80156102ed5780601f106102c2576101008083540402835291602001916102ed565b820191906000526020600020905b8154815290600101906020018083116102d057829003601f168201915b5050505050815260200160048201548152505082828151811061031257610312610bb9565b6020026020010181905250808061032890610be5565b9150506101d5565b50919050565b600081815260208181526040808320600101546001600160a01b0316835260029091529020541490565b6000602081905290815260409020805460018201546003830180546001600160a01b0393841694929093169261039590610b84565b80601f01602080910402602001604051908101604052809291908181526020018280546103c190610b84565b801561040e5780601f106103e35761010080835404028352916020019161040e565b820191906000526020600020905b8154815290600101906020018083116103f157829003601f168201915b5050505050908060040154905084565b6000818152602081815260409182902060020180548351818402810184019094528084526060939283018282801561047557602002820191906000526020600020905b815481526020019060010190808311610461575b50505050509050919050565b6000805b8451811015610510576104b08582815181106104a3576104a3610bb9565b6020026020010151610336565b6104fe5760405162461bcd60e51b815260206004820152601a60248201527920b83832b7321037b7363c9037b7103630b9ba1039ba32b8399760311b60448201526064015b60405180910390fd5b8061050881610be5565b915050610485565b506000805b855181101561058557866001600160a01b031660008088848151811061053d5761053d610bb9565b6020908102919091018101518252810191909152604001600020600101546001600160a01b031614156105735760019150610585565b8061057d81610be5565b915050610515565b50806105e7576001600160a01b038616600090815260026020526040902054156105e75760405162461bcd60e51b815260206004820152601360248201527224b739ba30b731b2903737ba103b30b634b21760691b60448201526064016104f5565b6040805160a0810182526001600160a01b03808716825288811660208084019182528385018a81526060850189905242608086015260018054600090815280845296909620855181549086166001600160a01b0319918216178255935196810180549790951696909316959095179092559251805192939261066f926002850192019061070f565b506060820151805161068b91600384019160209091019061075a565b506080919091015160049091015560018054908060006106ab8285610c00565b90915550506001600160a01b03871660009081526002602052604090819020829055517faaf69ffc30ad71be68c47171203a5feb746c3881d2dc180dbbac3893a57c6a44906106fd9083815260200190565b60405180910390a19695505050505050565b82805482825590600052602060002090810192821561074a579160200282015b8281111561074a57825182559160200191906001019061072f565b506107569291506107cd565b5090565b82805461076690610b84565b90600052602060002090601f016020900481019282610788576000855561074a565b82601f106107a157805160ff191683800117855561074a565b8280016001018555821561074a579182018281111561074a57825182559160200191906001019061072f565b5b8082111561075657600081556001016107ce565b80356001600160a01b03811681146107f957600080fd5b919050565b60006020828403121561081057600080fd5b610819826107e2565b9392505050565b6000815180845260005b818110156108465760208185018101518683018201520161082a565b81811115610858576000602083870101525b50601f01601f19169290920160200192915050565b60006020808301818452808551808352604092508286019150828160051b8701018488016000805b8481101561093b57898403603f19018652825180516001600160a01b0390811686528982015116898601528781015160a0898701819052815190870181905260c08701918b019085905b808210156108ff5782518452928c0192918c0191600191909101906108df565b505050606080830151878303828901526109198382610820565b6080948501519890940197909752505095880195935091870191600101610895565b50919998505050505050505050565b60006020828403121561095c57600080fd5b5035919050565b6001600160a01b0385811682528416602082015260806040820181905260009061098f90830185610820565b905082606083015295945050505050565b6020808252825182820181905260009190848201906040850190845b818110156109d8578351835292840192918401916001016109bc565b50909695505050505050565b634e487b7160e01b600052604160045260246000fd5b604051601f8201601f191681016001600160401b0381118282101715610a2257610a226109e4565b604052919050565b600082601f830112610a3b57600080fd5b81356001600160401b03811115610a5457610a546109e4565b610a67601f8201601f19166020016109fa565b818152846020838601011115610a7c57600080fd5b816020850160208301376000918101602001919091529392505050565b60008060008060808587031215610aaf57600080fd5b610ab8856107e2565b93506020858101356001600160401b0380821115610ad557600080fd5b818801915088601f830112610ae957600080fd5b813581811115610afb57610afb6109e4565b8060051b610b0a8582016109fa565b918252838101850191858101908c841115610b2457600080fd5b948601945b83861015610b4257853582529486019490860190610b29565b9850610b5492505050604089016107e2565b94506060880135925080831115610b6a57600080fd5b5050610b7887828801610a2a565b91505092959194509250565b600181811c90821680610b9857607f821691505b6020821081141561033057634e487b7160e01b600052602260045260246000fd5b634e487b7160e01b600052603260045260246000fd5b634e487b7160e01b600052601160045260246000fd5b6000600019821415610bf957610bf9610bcf565b5060010190565b60008219821115610c1357610c13610bcf565b50019056fea26469706673582212208d0b67a1c1812dd5283eaaf42f2819e6184e01b0908445a9d6f2152d3bcdf54b64736f6c63430008080033",
  "immutableReferences": {},
  "source": "pragma solidity >=0.8.0 <0.9.0;\n\nimport \"./SupplyChain.sol\";\nimport \"./StepChain.sol\";\n\ncontract App {\n    address[] public supplyChainList;\n    StepChain public stepChain = new StepChain();\n    mapping(address => User) public userList;\n    address[] public userAddresses;\n    struct User {\n        string name;\n        string location;\n        uint256 postCode;\n        uint256 phoneNumber;\n        string email;\n        uint256 createdAt;\n\n        bool init;\n    }\n\n    constructor() {}\n\n    function createSupplyChain(\n        string memory _productName,\n        address _seller,\n        address _buyer,\n        address _carrier,\n        address _certifier,\n        uint256 _price,\n        uint256 _carrierPrice,\n        uint256 _duration\n    ) public {\n        supplyChainList.push(\n            address(\n                new SupplyChain(\n                    _productName,\n                    _seller,\n                    _buyer,\n                    _carrier,\n                    _certifier,\n                    _price,\n                    _carrierPrice,\n                    _duration,\n                    address(stepChain)\n                )\n            )\n        );\n    }\n\n    function getSupplyChainList() external view returns (address[] memory) {\n        return supplyChainList;\n    }\n\n    function newUser(\n        string memory _name,\n        string memory _location,\n        uint256 _postCode,\n        uint256 _phoneNumber,\n        string memory _email\n    ) public {\n\n        require(userList[msg.sender].init==false,\"User already exists for the related account\");\n        User memory user =  User(_name,_location,_postCode,_phoneNumber,_email,block.timestamp,true); \n        userList[msg.sender]= user;\n        userAddresses.push(msg.sender);\n    }\n\n    function getUsers() public view returns(User[] memory,address[] memory){\n        User[] memory users = new User[](userAddresses.length);\n       for(uint256 i=0; i<userAddresses.length;i++){\n            users[i]=userList[userAddresses[i]];\n       }\n       return (users,userAddresses);\n    }\n}\n",
  "sourcePath": "C:\\Users\\WithoutName\\Documents\\TFG 3\\TFG-Cadena-Suministros\\truffle\\contracts\\App.sol",
  "compiler": {
    "name": "solc",
    "version": "0.8.8+commit.dddeac2f.Emscripten.clang"
  },
  "schemaVersion": "3.4.12",
  "updatedAt": "2024-06-11T18:06:51.127Z",
  "networkType": "ethereum",
  "devdoc": {
    "kind": "dev",
    "methods": {},
    "version": 1
  },
  "userdoc": {
    "kind": "user",
    "methods": {},
    "version": 1
  }
}