{
  "contractName": "StepChain",
  "abi": [
    {
      "anonymous": false,
      "inputs": [
        {
          "indexed": false,
          "internalType": "uint256",
          "name": "step",
          "type": "uint256"
        }
      ],
      "name": "StepCreated",
      "type": "event"
    },
    {
      "inputs": [
        {
          "internalType": "address",
          "name": "",
          "type": "address"
        }
      ],
      "name": "lastSteps",
      "outputs": [
        {
          "internalType": "uint256",
          "name": "",
          "type": "uint256"
        }
      ],
      "stateMutability": "view",
      "type": "function"
    },
    {
      "inputs": [
        {
          "internalType": "uint256",
          "name": "",
          "type": "uint256"
        }
      ],
      "name": "steps",
      "outputs": [
        {
          "internalType": "address",
          "name": "creator",
          "type": "address"
        },
        {
          "internalType": "address",
          "name": "item",
          "type": "address"
        },
        {
          "internalType": "string",
          "name": "description",
          "type": "string"
        },
        {
          "internalType": "uint256",
          "name": "timestamp",
          "type": "uint256"
        }
      ],
      "stateMutability": "view",
      "type": "function"
    },
    {
      "inputs": [],
      "name": "totalSteps",
      "outputs": [
        {
          "internalType": "uint256",
          "name": "",
          "type": "uint256"
        }
      ],
      "stateMutability": "view",
      "type": "function"
    },
    {
      "inputs": [],
      "name": "getSteps",
      "outputs": [
        {
          "components": [
            {
              "internalType": "address",
              "name": "creator",
              "type": "address"
            },
            {
              "internalType": "address",
              "name": "item",
              "type": "address"
            },
            {
              "internalType": "uint256[]",
              "name": "precedents",
              "type": "uint256[]"
            },
            {
              "internalType": "string",
              "name": "description",
              "type": "string"
            },
            {
              "internalType": "uint256",
              "name": "timestamp",
              "type": "uint256"
            }
          ],
          "internalType": "struct StepChain.Step[]",
          "name": "",
          "type": "tuple[]"
        }
      ],
      "stateMutability": "view",
      "type": "function"
    },
    {
      "inputs": [
        {
          "internalType": "address",
          "name": "_item",
          "type": "address"
        },
        {
          "internalType": "uint256[]",
          "name": "_precedents",
          "type": "uint256[]"
        },
        {
          "internalType": "address",
          "name": "_creator",
          "type": "address"
        },
        {
          "internalType": "string",
          "name": "_description",
          "type": "string"
        }
      ],
      "name": "newStep",
      "outputs": [
        {
          "internalType": "uint256",
          "name": "",
          "type": "uint256"
        }
      ],
      "stateMutability": "nonpayable",
      "type": "function"
    },
    {
      "inputs": [
        {
          "internalType": "uint256",
          "name": "_step",
          "type": "uint256"
        }
      ],
      "name": "isLastStep",
      "outputs": [
        {
          "internalType": "bool",
          "name": "",
          "type": "bool"
        }
      ],
      "stateMutability": "view",
      "type": "function"
    },
    {
      "inputs": [
        {
          "internalType": "uint256",
          "name": "_step",
          "type": "uint256"
        }
      ],
      "name": "getprecedents",
      "outputs": [
        {
          "internalType": "uint256[]",
          "name": "",
          "type": "uint256[]"
        }
      ],
      "stateMutability": "view",
      "type": "function"
    }
  ],
  "bytecode": "0x608060405234801561001057600080fd5b50610c4e806100206000396000f3fe608060405234801561001057600080fd5b506004361061006d5760003560e01c80632d89e2b2146100725780635da65ada146100a55780636931b3ae146100ba5780636f0e823d146100c35780637217e0b9146100e657806397add3a514610109578063bd8acf4514610129575b600080fd5b6100926100803660046107fe565b60026020526000908152604090205481565b6040519081526020015b60405180910390f35b6100ad61013c565b60405161009c919061086d565b61009260015481565b6100d66100d136600461094a565b610336565b604051901515815260200161009c565b6100f96100f436600461094a565b610360565b60405161009c9493929190610963565b61011c61011736600461094a565b61041e565b60405161009c91906109a0565b610092610137366004610a99565b610481565b606060006001546001600160401b0381111561015a5761015a6109e4565b6040519080825280602002602001820160405280156101cf57816020015b6101bc6040518060a0016040528060006001600160a01b0316815260200160006001600160a01b031681526020016060815260200160608152602001600081525090565b8152602001906001900390816101785790505b50905060005b6001548110156103305760008181526020818152604091829020825160a08101845281546001600160a01b039081168252600183015416818401526002820180548551818602810186018752818152929593949386019383018282801561025b57602002820191906000526020600020905b815481526020019060010190808311610247575b5050505050815260200160038201805461027490610b84565b80601f01602080910402602001604051908101604052809291908181526020018280546102a090610b84565b80156102ed5780601f106102c2576101008083540402835291602001916102ed565b820191906000526020600020905b8154815290600101906020018083116102d057829003601f168201915b5050505050815260200160048201548152505082828151811061031257610312610bb9565b6020026020010181905250808061032890610be5565b9150506101d5565b50919050565b600081815260208181526040808320600101546001600160a01b0316835260029091529020541490565b6000602081905290815260409020805460018201546003830180546001600160a01b0393841694929093169261039590610b84565b80601f01602080910402602001604051908101604052809291908181526020018280546103c190610b84565b801561040e5780601f106103e35761010080835404028352916020019161040e565b820191906000526020600020905b8154815290600101906020018083116103f157829003601f168201915b5050505050908060040154905084565b6000818152602081815260409182902060020180548351818402810184019094528084526060939283018282801561047557602002820191906000526020600020905b815481526020019060010190808311610461575b50505050509050919050565b6000805b8451811015610510576104b08582815181106104a3576104a3610bb9565b6020026020010151610336565b6104fe5760405162461bcd60e51b815260206004820152601a60248201527920b83832b7321037b7363c9037b7103630b9ba1039ba32b8399760311b60448201526064015b60405180910390fd5b8061050881610be5565b915050610485565b506000805b855181101561058557866001600160a01b031660008088848151811061053d5761053d610bb9565b6020908102919091018101518252810191909152604001600020600101546001600160a01b031614156105735760019150610585565b8061057d81610be5565b915050610515565b50806105e7576001600160a01b038616600090815260026020526040902054156105e75760405162461bcd60e51b815260206004820152601360248201527224b739ba30b731b2903737ba103b30b634b21760691b60448201526064016104f5565b6040805160a0810182526001600160a01b03808716825288811660208084019182528385018a81526060850189905242608086015260018054600090815280845296909620855181549086166001600160a01b0319918216178255935196810180549790951696909316959095179092559251805192939261066f926002850192019061070f565b506060820151805161068b91600384019160209091019061075a565b506080919091015160049091015560018054908060006106ab8285610c00565b90915550506001600160a01b03871660009081526002602052604090819020829055517faaf69ffc30ad71be68c47171203a5feb746c3881d2dc180dbbac3893a57c6a44906106fd9083815260200190565b60405180910390a19695505050505050565b82805482825590600052602060002090810192821561074a579160200282015b8281111561074a57825182559160200191906001019061072f565b506107569291506107cd565b5090565b82805461076690610b84565b90600052602060002090601f016020900481019282610788576000855561074a565b82601f106107a157805160ff191683800117855561074a565b8280016001018555821561074a579182018281111561074a57825182559160200191906001019061072f565b5b8082111561075657600081556001016107ce565b80356001600160a01b03811681146107f957600080fd5b919050565b60006020828403121561081057600080fd5b610819826107e2565b9392505050565b6000815180845260005b818110156108465760208185018101518683018201520161082a565b81811115610858576000602083870101525b50601f01601f19169290920160200192915050565b60006020808301818452808551808352604092508286019150828160051b8701018488016000805b8481101561093b57898403603f19018652825180516001600160a01b0390811686528982015116898601528781015160a0898701819052815190870181905260c08701918b019085905b808210156108ff5782518452928c0192918c0191600191909101906108df565b505050606080830151878303828901526109198382610820565b6080948501519890940197909752505095880195935091870191600101610895565b50919998505050505050505050565b60006020828403121561095c57600080fd5b5035919050565b6001600160a01b0385811682528416602082015260806040820181905260009061098f90830185610820565b905082606083015295945050505050565b6020808252825182820181905260009190848201906040850190845b818110156109d8578351835292840192918401916001016109bc565b50909695505050505050565b634e487b7160e01b600052604160045260246000fd5b604051601f8201601f191681016001600160401b0381118282101715610a2257610a226109e4565b604052919050565b600082601f830112610a3b57600080fd5b81356001600160401b03811115610a5457610a546109e4565b610a67601f8201601f19166020016109fa565b818152846020838601011115610a7c57600080fd5b816020850160208301376000918101602001919091529392505050565b60008060008060808587031215610aaf57600080fd5b610ab8856107e2565b93506020858101356001600160401b0380821115610ad557600080fd5b818801915088601f830112610ae957600080fd5b813581811115610afb57610afb6109e4565b8060051b610b0a8582016109fa565b918252838101850191858101908c841115610b2457600080fd5b948601945b83861015610b4257853582529486019490860190610b29565b9850610b5492505050604089016107e2565b94506060880135925080831115610b6a57600080fd5b5050610b7887828801610a2a565b91505092959194509250565b600181811c90821680610b9857607f821691505b6020821081141561033057634e487b7160e01b600052602260045260246000fd5b634e487b7160e01b600052603260045260246000fd5b634e487b7160e01b600052601160045260246000fd5b6000600019821415610bf957610bf9610bcf565b5060010190565b60008219821115610c1357610c13610bcf565b50019056fea26469706673582212208d0b67a1c1812dd5283eaaf42f2819e6184e01b0908445a9d6f2152d3bcdf54b64736f6c63430008080033",
  "immutableReferences": {},
  "source": "pragma solidity >=0.5.0;\n\n/**\n * @title Supply Chain\n * @author Alberto Cuesta Canada\n * @notice Implements a basic compositional supply chain contract.\n */\ncontract StepChain {\n    event StepCreated(uint256 step);\n    /**\n     * @notice Supply chain step data. By chaining these and not\n     * allowing them to be modified afterwards we create an Acyclic\n     * Directed Graph.\n     * @dev The step id is not stored in the Step itself because it\n     * is always previously available to whoever looks for the step.\n     * @param creator The creator of this step.\n     * @param item The id of the object that this step refers to.\n     * @param precedents The step ids preceding this one in the\n     * supply chain.\n     */\n    struct Step {\n        address creator;\n        address item;\n        uint256[] precedents;\n        string description;\n        uint256 timestamp;\n    }\n    /**\n     * @notice All steps are accessible through a mapping keyed by\n     * the step ids. Recursive structs are not supported in solidity.\n     */\n    mapping(uint256 => Step) public steps;\n    /**\n     * @notice Step counter\n     */\n    uint256 public totalSteps;\n\n    function getSteps() public view returns (Step[] memory) {\n        Step[] memory ret = new Step[](totalSteps);\n        for (uint256 i = 0; i < totalSteps; i++) {\n            ret[i] = steps[i];\n        }\n        return ret;\n    }\n\n    /**\n     * @notice Mapping from item id to the last step in the lifecycle\n     * of that item.\n     */\n    mapping(address => uint256) public lastSteps;\n\n    /**\n     * @notice A method to create a new supply chain step. The\n     * msg.sender is recorded as the creator of the step, which might\n     * possibly mean creator of the underlying asset as well.\n     * @param _item The item id that this step is for. This must be\n     * either the item of one of the steps in _precedents, or an id\n     * that has never been used before.\n     * @param _precedents An array of the step ids for steps\n     * considered to be predecessors to this one. Often this would\n     * just mean that the event refers to the same asset as the event\n     * pointed to, but for other steps it could point to other\n     * different assets.\n     * @return The step id of the step created.\n     */\n    function newStep(\n        address _item,\n        uint256[] memory _precedents,\n        address _creator,\n        string memory _description\n    ) public returns (uint256) {\n        for (uint256 i = 0; i < _precedents.length; i++) {\n            require(isLastStep(_precedents[i]), \"Append only on last steps.\");\n        }\n        bool repeatInstance = false;\n        for (uint256 i = 0; i < _precedents.length; i++) {\n            if (steps[_precedents[i]].item == _item) {\n                repeatInstance = true;\n                break;\n            }\n        }\n        if (!repeatInstance) {\n            require(lastSteps[_item] == 0, \"Instance not valid.\");\n        }\n\n        steps[totalSteps] = Step(\n            _creator,\n            _item,\n            _precedents,\n            _description,\n            block.timestamp\n        );\n        uint256 step = totalSteps;\n        totalSteps += 1;\n        lastSteps[_item] = step;\n        emit StepCreated(step);\n        return step;\n    }\n    /**\n     * @notice A method to verify whether a step is the last of an\n     * item.\n     * @param _step The step id of the step to verify.\n     * @return Whether a step is the last of an item.\n     */\n\n    function isLastStep(uint256 _step) public view returns (bool) {\n        return lastSteps[steps[_step].item] == _step;\n    }\n    /**\n     * @notice A method to retrieve the precedents of a step.\n     * @param _step The step id of the step to retrieve precedents\n     * for.\n     * @return An array with the step ids of the precedent steps.\n     */\n\n    function getprecedents(uint256 _step)\n        public\n        view\n        returns (uint256[] memory)\n    {\n        return steps[_step].precedents;\n    }\n}\n",
  "sourcePath": "C:\\Users\\WithoutName\\Documents\\TFG 3\\TFG-Cadena-Suministros\\truffle\\contracts\\StepChain.sol",
  "compiler": {
    "name": "solc",
    "version": "0.8.8+commit.dddeac2f.Emscripten.clang"
  },
  "schemaVersion": "3.4.12",
  "updatedAt": "2024-06-11T18:06:51.134Z",
  "networkType": "ethereum",
  "devdoc": {
    "author": "Alberto Cuesta Canada",
    "kind": "dev",
    "methods": {
      "getprecedents(uint256)": {
        "params": {
          "_step": "The step id of the step to retrieve precedents for."
        },
        "returns": {
          "_0": "An array with the step ids of the precedent steps."
        }
      },
      "isLastStep(uint256)": {
        "params": {
          "_step": "The step id of the step to verify."
        },
        "returns": {
          "_0": "Whether a step is the last of an item."
        }
      },
      "newStep(address,uint256[],address,string)": {
        "params": {
          "_item": "The item id that this step is for. This must be either the item of one of the steps in _precedents, or an id that has never been used before.",
          "_precedents": "An array of the step ids for steps considered to be predecessors to this one. Often this would just mean that the event refers to the same asset as the event pointed to, but for other steps it could point to other different assets."
        },
        "returns": {
          "_0": "The step id of the step created."
        }
      }
    },
    "title": "Supply Chain",
    "version": 1
  },
  "userdoc": {
    "kind": "user",
    "methods": {
      "getprecedents(uint256)": {
        "notice": "A method to retrieve the precedents of a step."
      },
      "isLastStep(uint256)": {
        "notice": "A method to verify whether a step is the last of an item."
      },
      "lastSteps(address)": {
        "notice": "Mapping from item id to the last step in the lifecycle of that item."
      },
      "newStep(address,uint256[],address,string)": {
        "notice": "A method to create a new supply chain step. The msg.sender is recorded as the creator of the step, which might possibly mean creator of the underlying asset as well."
      },
      "steps(uint256)": {
        "notice": "All steps are accessible through a mapping keyed by the step ids. Recursive structs are not supported in solidity."
      },
      "totalSteps()": {
        "notice": "Step counter"
      }
    },
    "notice": "Implements a basic compositional supply chain contract.",
    "version": 1
  }
}