{
  "contractName": "SupplyChain",
  "abi": [
    {
      "inputs": [
        {
          "internalType": "string",
          "name": "_productName",
          "type": "string"
        },
        {
          "internalType": "address",
          "name": "_seller",
          "type": "address"
        },
        {
          "internalType": "address",
          "name": "_buyer",
          "type": "address"
        },
        {
          "internalType": "address",
          "name": "_carrier",
          "type": "address"
        },
        {
          "internalType": "address",
          "name": "_certifier",
          "type": "address"
        },
        {
          "internalType": "uint256",
          "name": "_price",
          "type": "uint256"
        },
        {
          "internalType": "uint256",
          "name": "_carrierPrice",
          "type": "uint256"
        },
        {
          "internalType": "uint256",
          "name": "_duration",
          "type": "uint256"
        },
        {
          "internalType": "address",
          "name": "_stepChain",
          "type": "address"
        }
      ],
      "stateMutability": "nonpayable",
      "type": "constructor"
    },
    {
      "inputs": [],
      "name": "buyer",
      "outputs": [
        {
          "internalType": "address",
          "name": "",
          "type": "address"
        }
      ],
      "stateMutability": "view",
      "type": "function"
    },
    {
      "inputs": [],
      "name": "carrier",
      "outputs": [
        {
          "internalType": "address",
          "name": "",
          "type": "address"
        }
      ],
      "stateMutability": "view",
      "type": "function"
    },
    {
      "inputs": [],
      "name": "carrierFirm",
      "outputs": [
        {
          "internalType": "bool",
          "name": "",
          "type": "bool"
        }
      ],
      "stateMutability": "view",
      "type": "function"
    },
    {
      "inputs": [],
      "name": "carrierPrice",
      "outputs": [
        {
          "internalType": "uint256",
          "name": "",
          "type": "uint256"
        }
      ],
      "stateMutability": "view",
      "type": "function"
    },
    {
      "inputs": [],
      "name": "certifier",
      "outputs": [
        {
          "internalType": "address",
          "name": "",
          "type": "address"
        }
      ],
      "stateMutability": "view",
      "type": "function"
    },
    {
      "inputs": [],
      "name": "certifierFirm",
      "outputs": [
        {
          "internalType": "bool",
          "name": "",
          "type": "bool"
        }
      ],
      "stateMutability": "view",
      "type": "function"
    },
    {
      "inputs": [],
      "name": "duration",
      "outputs": [
        {
          "internalType": "uint256",
          "name": "",
          "type": "uint256"
        }
      ],
      "stateMutability": "view",
      "type": "function"
    },
    {
      "inputs": [],
      "name": "funds",
      "outputs": [
        {
          "internalType": "uint256",
          "name": "",
          "type": "uint256"
        }
      ],
      "stateMutability": "view",
      "type": "function"
    },
    {
      "inputs": [],
      "name": "init",
      "outputs": [
        {
          "internalType": "bool",
          "name": "",
          "type": "bool"
        }
      ],
      "stateMutability": "view",
      "type": "function"
    },
    {
      "inputs": [
        {
          "internalType": "uint256",
          "name": "",
          "type": "uint256"
        }
      ],
      "name": "newPriceArray",
      "outputs": [
        {
          "internalType": "uint256",
          "name": "",
          "type": "uint256"
        }
      ],
      "stateMutability": "view",
      "type": "function"
    },
    {
      "inputs": [],
      "name": "owner",
      "outputs": [
        {
          "internalType": "address",
          "name": "",
          "type": "address"
        }
      ],
      "stateMutability": "view",
      "type": "function"
    },
    {
      "inputs": [
        {
          "internalType": "address",
          "name": "",
          "type": "address"
        }
      ],
      "name": "pendingWithdrawals",
      "outputs": [
        {
          "internalType": "uint256",
          "name": "",
          "type": "uint256"
        }
      ],
      "stateMutability": "view",
      "type": "function"
    },
    {
      "inputs": [
        {
          "internalType": "uint256",
          "name": "",
          "type": "uint256"
        }
      ],
      "name": "precedentSupplyChains",
      "outputs": [
        {
          "internalType": "address",
          "name": "",
          "type": "address"
        }
      ],
      "stateMutability": "view",
      "type": "function"
    },
    {
      "inputs": [],
      "name": "price",
      "outputs": [
        {
          "internalType": "uint256",
          "name": "",
          "type": "uint256"
        }
      ],
      "stateMutability": "view",
      "type": "function"
    },
    {
      "inputs": [],
      "name": "productCount",
      "outputs": [
        {
          "internalType": "uint256",
          "name": "",
          "type": "uint256"
        }
      ],
      "stateMutability": "view",
      "type": "function"
    },
    {
      "inputs": [
        {
          "internalType": "uint256",
          "name": "",
          "type": "uint256"
        }
      ],
      "name": "productList",
      "outputs": [
        {
          "internalType": "uint256",
          "name": "quantity",
          "type": "uint256"
        },
        {
          "internalType": "address",
          "name": "id",
          "type": "address"
        },
        {
          "internalType": "bool",
          "name": "coolChain",
          "type": "bool"
        },
        {
          "internalType": "bool",
          "name": "certificate1",
          "type": "bool"
        },
        {
          "internalType": "bool",
          "name": "certificate2",
          "type": "bool"
        },
        {
          "internalType": "bool",
          "name": "finished",
          "type": "bool"
        }
      ],
      "stateMutability": "view",
      "type": "function"
    },
    {
      "inputs": [
        {
          "internalType": "address",
          "name": "",
          "type": "address"
        }
      ],
      "name": "productMapping",
      "outputs": [
        {
          "internalType": "uint256",
          "name": "",
          "type": "uint256"
        }
      ],
      "stateMutability": "view",
      "type": "function"
    },
    {
      "inputs": [],
      "name": "productName",
      "outputs": [
        {
          "internalType": "string",
          "name": "",
          "type": "string"
        }
      ],
      "stateMutability": "view",
      "type": "function"
    },
    {
      "inputs": [],
      "name": "seller",
      "outputs": [
        {
          "internalType": "address",
          "name": "",
          "type": "address"
        }
      ],
      "stateMutability": "view",
      "type": "function"
    },
    {
      "inputs": [],
      "name": "sellerFirm",
      "outputs": [
        {
          "internalType": "bool",
          "name": "",
          "type": "bool"
        }
      ],
      "stateMutability": "view",
      "type": "function"
    },
    {
      "inputs": [],
      "name": "stepChain",
      "outputs": [
        {
          "internalType": "contract StepChain",
          "name": "",
          "type": "address"
        }
      ],
      "stateMutability": "view",
      "type": "function"
    },
    {
      "inputs": [],
      "name": "getProductList",
      "outputs": [
        {
          "components": [
            {
              "internalType": "uint256",
              "name": "quantity",
              "type": "uint256"
            },
            {
              "internalType": "address",
              "name": "id",
              "type": "address"
            },
            {
              "internalType": "bool",
              "name": "coolChain",
              "type": "bool"
            },
            {
              "internalType": "bool",
              "name": "certificate1",
              "type": "bool"
            },
            {
              "internalType": "bool",
              "name": "certificate2",
              "type": "bool"
            },
            {
              "internalType": "bool",
              "name": "finished",
              "type": "bool"
            }
          ],
          "internalType": "struct SupplyChain.Product[]",
          "name": "",
          "type": "tuple[]"
        }
      ],
      "stateMutability": "view",
      "type": "function"
    },
    {
      "inputs": [],
      "name": "getPrecedents",
      "outputs": [
        {
          "internalType": "address[]",
          "name": "",
          "type": "address[]"
        }
      ],
      "stateMutability": "view",
      "type": "function"
    },
    {
      "inputs": [
        {
          "internalType": "address",
          "name": "id",
          "type": "address"
        }
      ],
      "name": "getProduct",
      "outputs": [
        {
          "components": [
            {
              "internalType": "uint256",
              "name": "quantity",
              "type": "uint256"
            },
            {
              "internalType": "address",
              "name": "id",
              "type": "address"
            },
            {
              "internalType": "bool",
              "name": "coolChain",
              "type": "bool"
            },
            {
              "internalType": "bool",
              "name": "certificate1",
              "type": "bool"
            },
            {
              "internalType": "bool",
              "name": "certificate2",
              "type": "bool"
            },
            {
              "internalType": "bool",
              "name": "finished",
              "type": "bool"
            }
          ],
          "internalType": "struct SupplyChain.Product",
          "name": "",
          "type": "tuple"
        }
      ],
      "stateMutability": "view",
      "type": "function"
    },
    {
      "inputs": [
        {
          "internalType": "uint256",
          "name": "_quantity",
          "type": "uint256"
        },
        {
          "internalType": "address[]",
          "name": "_precedentProducts",
          "type": "address[]"
        }
      ],
      "name": "createProduct",
      "outputs": [
        {
          "internalType": "address",
          "name": "",
          "type": "address"
        }
      ],
      "stateMutability": "nonpayable",
      "type": "function"
    },
    {
      "inputs": [
        {
          "internalType": "address",
          "name": "_productId",
          "type": "address"
        }
      ],
      "name": "makeShipment",
      "outputs": [],
      "stateMutability": "nonpayable",
      "type": "function"
    },
    {
      "inputs": [
        {
          "internalType": "address",
          "name": "_productId",
          "type": "address"
        }
      ],
      "name": "receiveShipment",
      "outputs": [],
      "stateMutability": "nonpayable",
      "type": "function"
    },
    {
      "inputs": [
        {
          "internalType": "address",
          "name": "_productId",
          "type": "address"
        }
      ],
      "name": "certify1",
      "outputs": [],
      "stateMutability": "nonpayable",
      "type": "function"
    },
    {
      "inputs": [
        {
          "internalType": "address",
          "name": "_productId",
          "type": "address"
        }
      ],
      "name": "certify2",
      "outputs": [],
      "stateMutability": "nonpayable",
      "type": "function"
    },
    {
      "inputs": [
        {
          "internalType": "address",
          "name": "_productId",
          "type": "address"
        }
      ],
      "name": "breakCoolChain",
      "outputs": [],
      "stateMutability": "nonpayable",
      "type": "function"
    },
    {
      "inputs": [],
      "name": "withdraw",
      "outputs": [],
      "stateMutability": "nonpayable",
      "type": "function"
    },
    {
      "inputs": [],
      "name": "addFunds",
      "outputs": [],
      "stateMutability": "payable",
      "type": "function"
    },
    {
      "inputs": [
        {
          "internalType": "uint256",
          "name": "newPrice",
          "type": "uint256"
        }
      ],
      "name": "modifyPrice",
      "outputs": [],
      "stateMutability": "nonpayable",
      "type": "function"
    },
    {
      "inputs": [],
      "name": "getBalance",
      "outputs": [
        {
          "internalType": "uint256",
          "name": "",
          "type": "uint256"
        }
      ],
      "stateMutability": "view",
      "type": "function"
    },
    {
      "inputs": [],
      "name": "firmSeller",
      "outputs": [],
      "stateMutability": "nonpayable",
      "type": "function"
    },
    {
      "inputs": [],
      "name": "firmCarrier",
      "outputs": [],
      "stateMutability": "nonpayable",
      "type": "function"
    },
    {
      "inputs": [],
      "name": "firmCertifier",
      "outputs": [],
      "stateMutability": "nonpayable",
      "type": "function"
    },
    {
      "inputs": [
        {
          "internalType": "address[]",
          "name": "_precedentProducts",
          "type": "address[]"
        }
      ],
      "name": "addPrecedents",
      "outputs": [],
      "stateMutability": "nonpayable",
      "type": "function"
    }
  ],
  "bytecode": "0x600c805463ffffffff1916905560c06040526000608081815260a0919091526200002e9060109060026200010c565b503480156200003c57600080fd5b5060405162002948380380620029488339810160408190526200005f9162000228565b8851620000749060009060208c019062000161565b50600280546001600160a01b03998a166001600160a01b03199182161790915560038054988a169882169890981790975560048054968916968816969096179095556000600d556005805494881694871694909417909355600891909155600955600755600180549092163317909155600c80549190921664010000000002600160201b600160c01b031990911617905550620003be565b8280548282559060005260206000209081019282156200014f579160200282015b828111156200014f578251829060ff169055916020019190600101906200012d565b506200015d929150620001de565b5090565b8280546200016f9062000381565b90600052602060002090601f0160209004810192826200019357600085556200014f565b82601f10620001ae57805160ff19168380011785556200014f565b828001600101855582156200014f579182015b828111156200014f578251825591602001919060010190620001c1565b5b808211156200015d5760008155600101620001df565b634e487b7160e01b600052604160045260246000fd5b80516001600160a01b03811681146200022357600080fd5b919050565b60008060008060008060008060006101208a8c0312156200024857600080fd5b89516001600160401b03808211156200026057600080fd5b818c0191508c601f8301126200027557600080fd5b8151818111156200028a576200028a620001f5565b604051601f8201601f19908116603f01168101908382118183101715620002b557620002b5620001f5565b81604052828152602093508f84848701011115620002d257600080fd5b600091505b82821015620002f65784820184015181830185015290830190620002d7565b82821115620003085760008484830101525b9c506200031a9150508c82016200020b565b995050506200032c60408b016200020b565b96506200033c60608b016200020b565b95506200034c60808b016200020b565b945060a08a0151935060c08a0151925060e08a01519150620003726101008b016200020b565b90509295985092959850929598565b600181811c908216806200039657607f821691505b60208210811415620003b857634e487b7160e01b600052602260045260246000fd5b50919050565b61257a80620003ce6000396000f3fe6080604052600436106101b55760003560e01c8063032be250146101ba57806304a0e751146101d157806308551a53146101fc5780630fb5a6b41461022957806312065fe01461024d578063120c7efd1461026257806319527f5c14610282578063228ed4a1146102a25780632bdc32ff146102d25780632e520643146102f257806334d2c0ad146103125780633ccfd60b1461033457806343340e91146103495780634735409614610370578063528c87d21461038f5780635caca098146103ee5780637150d8ae146104035780637a4e7006146104235780637bb9ada1146104395780637d3024fc146104665780637f7650eb146104865780638da5cb5b146104a8578063a035b1fe146104c8578063a039415c146104de578063a26759cb146104ff578063a79a9f4b14610507578063aee7fc1814610527578063bbe6b70114610547578063c89f2ce414610567578063d1fee7b31461057d578063d9aba9ce14610592578063dbfadd4d146105bf578063e0f6ef87146105df578063e1c7392a146105f5578063ef0ebbde1461060f578063f14f2c571461062f578063f3f437031461064f578063f779e8531461067c575b600080fd5b3480156101c657600080fd5b506101cf61069c565b005b3480156101dd57600080fd5b506101e66106d0565b6040516101f39190611e84565b60405180910390f35b34801561020857600080fd5b5060025461021c906001600160a01b031681565b6040516101f39190611ed1565b34801561023557600080fd5b5061023f60075481565b6040519081526020016101f3565b34801561025957600080fd5b5061023f610732565b34801561026e57600080fd5b5060055461021c906001600160a01b031681565b34801561028e57600080fd5b5061021c61029d366004611ee5565b610776565b3480156102ae57600080fd5b50600c546102c29062010000900460ff1681565b60405190151581526020016101f3565b3480156102de57600080fd5b5060045461021c906001600160a01b031681565b3480156102fe57600080fd5b506101cf61030d366004611f13565b6107a0565b34801561031e57600080fd5b50610327610960565b6040516101f39190611f7f565b34801561034057600080fd5b506101cf610a1b565b34801561035557600080fd5b50600c5461021c90600160201b90046001600160a01b031681565b34801561037c57600080fd5b50600c546102c290610100900460ff1681565b34801561039b57600080fd5b506103af6103aa366004611ee5565b610a60565b604080519687526001600160a01b03909516602087015292151593850193909352151560608401529015156080830152151560a082015260c0016101f3565b3480156103fa57600080fd5b506101cf610ac1565b34801561040f57600080fd5b5060035461021c906001600160a01b031681565b34801561042f57600080fd5b5061023f60095481565b34801561044557600080fd5b5061023f610454366004611f13565b600f6020526000908152604090205481565b34801561047257600080fd5b5061023f610481366004611ee5565b610aef565b34801561049257600080fd5b5061049b610b10565b6040516101f39190611fc1565b3480156104b457600080fd5b5060015461021c906001600160a01b031681565b3480156104d457600080fd5b5061023f60085481565b3480156104ea57600080fd5b50600c546102c2906301000000900460ff1681565b6101cf610b9e565b34801561051357600080fd5b506101cf610522366004611f13565b610c2a565b34801561053357600080fd5b506101cf610542366004611f13565b610ef8565b34801561055357600080fd5b506101cf610562366004611ee5565b610ff8565b34801561057357600080fd5b5061023f60065481565b34801561058957600080fd5b506101cf6111fc565b34801561059e57600080fd5b506105b26105ad366004611f13565b61122c565b6040516101f39190612016565b3480156105cb57600080fd5b506101cf6105da366004611f13565b61130a565b3480156105eb57600080fd5b5061023f600d5481565b34801561060157600080fd5b50600c546102c29060ff1681565b34801561061b57600080fd5b506101cf61062a3660046120dd565b611473565b34801561063b57600080fd5b5061021c61064a366004612119565b61149d565b34801561065b57600080fd5b5061023f61066a366004611f13565b600a6020526000908152604090205481565b34801561068857600080fd5b506101cf610697366004611f13565b611a3d565b6005546001600160a01b031633146106b357600080fd5b600c805463ff000000191663010000001790556106ce611ba6565b565b6060600b80548060200260200160405190810160405280929190818152602001828054801561072857602002820191906000526020600020905b81546001600160a01b0316815260019091019060200180831161070a575b5050505050905090565b6003546000906001600160a01b031633148061075857506001546001600160a01b031633145b1561076257504790565b50336000908152600a602052604090205490565b600b818154811061078657600080fd5b6000918252602090912001546001600160a01b0316905081565b6040805160018082528183019092526000916020808301908036833701905050600c546040516316c4f15960e11b8152919250600160201b90046001600160a01b031690632d89e2b2906107f8908590600401611ed1565b60206040518083038186803b15801561081057600080fd5b505afa158015610824573d6000803e3d6000fd5b505050506040513d601f19601f82011682018060405250810190610848919061215f565b8160008151811061085b5761085b612178565b6020026020010181815250506001600e600f6000856001600160a01b03166001600160a01b0316815260200190815260200160002054815481106108a1576108a1612178565b60009182526020909120600290910201600101805460ff60b01b1916600160b01b92151592909202919091179055600c5460405163bd8acf4560e01b8152600160201b9091046001600160a01b03169063bd8acf4590610909908590859033906004016121c9565b602060405180830381600087803b15801561092357600080fd5b505af1158015610937573d6000803e3d6000fd5b505050506040513d601f19601f8201168201806040525081019061095b919061215f565b505050565b6060600e805480602002602001604051908101604052809291908181526020016000905b82821015610a125760008481526020908190206040805160c08101825260028602909201805483526001908101546001600160a01b0381168486015260ff600160a01b82048116151593850193909352600160a81b8104831615156060850152600160b01b8104831615156080850152600160b81b9004909116151560a08301529083529092019101610984565b50505050905090565b336000818152600a6020526040808220805490839055905190929183156108fc02918491818181858888f19350505050158015610a5c573d6000803e3d6000fd5b5050565b600e8181548110610a7057600080fd5b6000918252602090912060029091020180546001909101549091506001600160a01b0381169060ff600160a01b8204811691600160a81b8104821691600160b01b8204811691600160b81b90041686565b6002546001600160a01b03163314610ad857600080fd5b600c805461ff0019166101001790556106ce611ba6565b60108181548110610aff57600080fd5b600091825260209091200154905081565b60008054610b1d90612223565b80601f0160208091040260200160405190810160405280929190818152602001828054610b4990612223565b8015610b965780601f10610b6b57610100808354040283529160200191610b96565b820191906000526020600020905b815481529060010190602001808311610b7957829003601f168201915b505050505081565b6003546001600160a01b03163314610bf95760405162461bcd60e51b815260206004820152601960248201527827b7363c90313abcb2b91031b0b71030b23210333ab732399760391b60448201526064015b60405180910390fd5b6003546001600160a01b03166000908152600a602052604081208054349290610c2390849061226e565b9091555050565b6040805160018082528183019092526000916020808301908036833701905050600c546040516316c4f15960e11b8152919250600160201b90046001600160a01b031690632d89e2b290610c82908590600401611ed1565b60206040518083038186803b158015610c9a57600080fd5b505afa158015610cae573d6000803e3d6000fd5b505050506040513d601f19601f82011682018060405250810190610cd2919061215f565b81600081518110610ce557610ce5612178565b6020908102919091010152600c5460405163bd8acf4560e01b8152600160201b9091046001600160a01b03169063bd8acf4590610d2a90859085903390600401612286565b602060405180830381600087803b158015610d4457600080fd5b505af1158015610d58573d6000803e3d6000fd5b505050506040513d601f19601f82011682018060405250810190610d7c919061215f565b506009546004546001600160a01b03166000908152600a602052604081208054909190610daa90849061226e565b90915550506009546003546001600160a01b03166000908152600a602052604081208054909190610ddc9084906122dd565b90915550506001600160a01b0382166000908152600f6020526040812054600e80549091908110610e0f57610e0f612178565b906000526020600020906002020160000154905060085481610e3191906122f4565b6002546001600160a01b03166000908152600a602052604081208054909190610e5b90849061226e565b9091555050600854610e6d90826122f4565b6003546001600160a01b03166000908152600a602052604081208054909190610e979084906122dd565b90915550506001600160a01b0383166000908152600f6020526040902054600e8054600192908110610ecb57610ecb612178565b906000526020600020906002020160010160176101000a81548160ff021916908315150217905550505050565b6040805160018082528183019092526000916020808301908036833701905050600c546040516316c4f15960e11b8152919250600160201b90046001600160a01b031690632d89e2b290610f50908590600401611ed1565b60206040518083038186803b158015610f6857600080fd5b505afa158015610f7c573d6000803e3d6000fd5b505050506040513d601f19601f82011682018060405250810190610fa0919061215f565b81600081518110610fb357610fb3612178565b6020908102919091010152600c5460405163bd8acf4560e01b8152600160201b9091046001600160a01b03169063bd8acf459061090990859085903390600401612313565b6002546001600160a01b031633148061101b57506003546001600160a01b031633145b6110765760405162461bcd60e51b815260206004820152602660248201527f4f6e6c792073656c6c6572206f722062757965722063616e206d6f6469667920604482015265383934b1b29760d11b6064820152608401610bf0565b6002546001600160a01b031633141561113f57601060018154811061109d5761109d612178565b90600052602060002001546000141580156110d557508060106001815481106110c8576110c8612178565b9060005260206000200154145b1561112a5780600881905550600060106000815481106110f7576110f7612178565b90600052602060002001819055506000601060018154811061111b5761111b612178565b60009182526020909120015550565b8060106000815481106110f7576110f7612178565b6003546001600160a01b03163314156111f957601060008154811061116657611166612178565b906000526020600020015460001415801561119e575080601060008154811061119157611191612178565b9060005260206000200154145b156111c05780600881905550600060106000815481106110f7576110f7612178565b8060106001815481106111d5576111d5612178565b90600052602060002001819055506000601060008154811061111b5761111b612178565b50565b6004546001600160a01b0316331461121357600080fd5b600c805462ff00001916620100001790556106ce611ba6565b6040805160c08101825260008082526020808301829052828401829052606083018290526080830182905260a083018290526001600160a01b0385168252600f90529190912054600e8054909190811061128857611288612178565b60009182526020918290206040805160c081018252600290930290910180548352600101546001600160a01b0381169383019390935260ff600160a01b84048116151591830191909152600160a81b8304811615156060830152600160b01b8304811615156080830152600160b81b909204909116151560a082015292915050565b6040805160018082528183019092526000916020808301908036833701905050600c546040516316c4f15960e11b8152919250600160201b90046001600160a01b031690632d89e2b290611362908590600401611ed1565b60206040518083038186803b15801561137a57600080fd5b505afa15801561138e573d6000803e3d6000fd5b505050506040513d601f19601f820116820180604052508101906113b2919061215f565b816000815181106113c5576113c5612178565b6020026020010181815250506001600e600f6000856001600160a01b03166001600160a01b03168152602001908152602001600020548154811061140b5761140b612178565b60009182526020909120600290910201600101805460ff60a81b1916600160a81b92151592909202919091179055600c5460405163bd8acf4560e01b8152600160201b9091046001600160a01b03169063bd8acf45906109099085908590339060040161236a565b6002546001600160a01b0316331461148a57600080fd5b8051610a5c90600b906020840190611e0a565b600b54815160009111156114e65760405162461bcd60e51b815260206004820152601060248201526f1b195b99dd1a081a5b98dbdc9c9958dd60821b6044820152606401610bf0565b600c5460ff1615156001146115385760405162461bcd60e51b815260206004820152601860248201527718dbdb9d1c9858dd081b9bdd081a5b9a5d1a585b1a5e995960421b6044820152606401610bf0565b6002546001600160a01b0316331461158b5760405162461bcd60e51b81526020600482015260166024820152752cb7ba9030b932903737ba103a34329039b2b63632b960511b6044820152606401610bf0565b6040516001600160601b03193360601b16602082015242603482015260009060540160408051601f19818403018152828252805160209182012060c084018352878452606090811c91840182905260019284019290925260009183018290526080830182905260a08301829052600b549093506001600160401b0381111561161557611615612024565b60405190808252806020026020018201604052801561163e578160200160208202803683370190505b509050600085516001600160401b0381111561165c5761165c612024565b604051908082528060200260200182016040528015611685578160200160208202803683370190505b50905060005b86518110156118115760005b600b5481101561173757600b81815481106116b4576116b4612178565b60009182526020909120015488516001600160a01b03909116906116f1908a90859081106116e4576116e4612178565b6020026020010151611bee565b6001600160a01b0316141561172557600184828151811061171457611714612178565b911515602092830291909101909101525b8061172f816123c4565b915050611697565b50600c60049054906101000a90046001600160a01b03166001600160a01b0316632d89e2b288838151811061176e5761176e612178565b60200260200101516040518263ffffffff1660e01b81526004016117929190611ed1565b60206040518083038186803b1580156117aa57600080fd5b505afa1580156117be573d6000803e3d6000fd5b505050506040513d601f19601f820116820180604052508101906117e2919061215f565b8282815181106117f4576117f4612178565b602090810291909101015280611809816123c4565b91505061168b565b5060005b600b548110156118975782818151811061183157611831612178565b60200260200101516118855760405162461bcd60e51b815260206004820181905260248201527f4d6f726520707265636564656e742070726f64756374732072657175697265646044820152606401610bf0565b8061188f816123c4565b915050611815565b50600e80546001810182556000918252845160029091027fbb7b4a454dc3493923482f07822329ed19e8244eff582cc204f8554c3620c3fd8101919091556020808601517fbb7b4a454dc3493923482f07822329ed19e8244eff582cc204f8554c3620c3fe909201805460408089015160608a015160808b015160a08c01511515600160b81b0260ff60b81b19911515600160b01b0260ff60b01b19931515600160a81b029390931661ffff60a81b19941515600160a01b026001600160a81b03199097166001600160a01b039a8b1617969096179390931694909417179290921691909117909155600d80549389168552600f9092528320829055909161199e836123c4565b9091555050600c5460405163bd8acf4560e01b8152600160201b9091046001600160a01b03169063bd8acf45906119dd908790859033906004016123df565b602060405180830381600087803b1580156119f757600080fd5b505af1158015611a0b573d6000803e3d6000fd5b505050506040513d601f19601f82011682018060405250810190611a2f919061215f565b509293505050505b92915050565b6040805160018082528183019092526000916020808301908036833701905050600c546040516316c4f15960e11b8152919250600160201b90046001600160a01b031690632d89e2b290611a95908590600401611ed1565b60206040518083038186803b158015611aad57600080fd5b505afa158015611ac1573d6000803e3d6000fd5b505050506040513d601f19601f82011682018060405250810190611ae5919061215f565b81600081518110611af857611af8612178565b6020026020010181815250506000600e600f6000856001600160a01b03166001600160a01b031681526020019081526020016000205481548110611b3e57611b3e612178565b60009182526020909120600290910201600101805460ff60a01b1916600160a01b92151592909202919091179055600c5460405163bd8acf4560e01b8152600160201b9091046001600160a01b03169063bd8acf459061090990859085903390600401612436565b600c54610100900460ff168015611bc55750600c5462010000900460ff165b8015611bda5750600c546301000000900460ff165b156106ce57600c805460ff19166001179055565b6000805b600b54811015611e04576000600b8281548110611c1157611c11612178565b60009182526020808320909101546040805163e0f6ef8760e01b815290516001600160a01b039092169450849263e0f6ef8792600480840193829003018186803b158015611c5e57600080fd5b505afa158015611c72573d6000803e3d6000fd5b505050506040513d601f19601f82011682018060405250810190611c96919061215f565b118015611d335750836001600160a01b0316816001600160a01b031663d9aba9ce866040518263ffffffff1660e01b8152600401611cd49190611ed1565b60c06040518083038186803b158015611cec57600080fd5b505afa158015611d00573d6000803e3d6000fd5b505050506040513d601f19601f82011682018060405250810190611d2491906124ab565b602001516001600160a01b0316145b8015611dbb5750604051636cd5d4e760e11b81526001600160a01b0382169063d9aba9ce90611d66908790600401611ed1565b60c06040518083038186803b158015611d7e57600080fd5b505afa158015611d92573d6000803e3d6000fd5b505050506040513d601f19601f82011682018060405250810190611db691906124ab565b60a001515b15611df157600b8281548110611dd357611dd3612178565b6000918252602090912001546001600160a01b03169250611e049050565b5080611dfc816123c4565b915050611bf2565b50919050565b828054828255906000526020600020908101928215611e5f579160200282015b82811115611e5f57825182546001600160a01b0319166001600160a01b03909116178255602090920191600190910190611e2a565b50611e6b929150611e6f565b5090565b5b80821115611e6b5760008155600101611e70565b6020808252825182820181905260009190848201906040850190845b81811015611ec55783516001600160a01b031683529284019291840191600101611ea0565b50909695505050505050565b6001600160a01b0391909116815260200190565b600060208284031215611ef757600080fd5b5035919050565b6001600160a01b03811681146111f957600080fd5b600060208284031215611f2557600080fd5b8135611f3081611efe565b9392505050565b805182526020808201516001600160a01b03169083015260408082015115159083015260608082015115159083015260808082015115159083015260a0908101511515910152565b6020808252825182820181905260009190848201906040850190845b81811015611ec557611fae838551611f37565b9284019260c09290920191600101611f9b565b600060208083528351808285015260005b81811015611fee57858101830151858201604001528201611fd2565b81811115612000576000604083870101525b50601f01601f1916929092016040019392505050565b60c08101611a378284611f37565b634e487b7160e01b600052604160045260246000fd5b600082601f83011261204b57600080fd5b813560206001600160401b038083111561206757612067612024565b8260051b604051601f19603f8301168101818110848211171561208c5761208c612024565b6040529384528581018301938381019250878511156120aa57600080fd5b83870191505b848210156120d25781356120c381611efe565b835291830191908301906120b0565b979650505050505050565b6000602082840312156120ef57600080fd5b81356001600160401b0381111561210557600080fd5b6121118482850161203a565b949350505050565b6000806040838503121561212c57600080fd5b8235915060208301356001600160401b0381111561214957600080fd5b6121558582860161203a565b9150509250929050565b60006020828403121561217157600080fd5b5051919050565b634e487b7160e01b600052603260045260246000fd5b600081518084526020808501945080840160005b838110156121be578151875295820195908201906001016121a2565b509495945050505050565b600060018060a01b038086168352608060208401526121eb608084018661218e565b81851660408501528381036060850152600b81526a21b2b93a34b334b2b2101960a91b60208201526040810192505050949350505050565b600181811c9082168061223757607f821691505b60208210811415611e0457634e487b7160e01b600052602260045260246000fd5b634e487b7160e01b600052601160045260246000fd5b6000821982111561228157612281612258565b500190565b600060018060a01b038086168352608060208401526122a8608084018661218e565b81851660408501528381036060850152600881526744656c697665727960c01b60208201526040810192505050949350505050565b6000828210156122ef576122ef612258565b500390565b600081600019048311821515161561230e5761230e612258565b500290565b600060018060a01b03808616835260806020840152612335608084018661218e565b81851660408501528381036060850152600881526714da1a5c1b595b9d60c21b60208201526040810192505050949350505050565b600060018060a01b0380861683526080602084015261238c608084018661218e565b81851660408501528381036060850152600b81526a436572746966696564203160a81b60208201526040810192505050949350505050565b60006000198214156123d8576123d8612258565b5060010190565b600060018060a01b03808616835260806020840152612401608084018661218e565b81851660408501528381036060850152600881526721b932b0ba34b7b760c11b60208201526040810192505050949350505050565b600060018060a01b03808616835260806020840152612458608084018661218e565b81851660408501528381036060850152601181527021b7b7b61031b430b4b710313937b5b2b760791b60208201526040810192505050949350505050565b805180151581146124a657600080fd5b919050565b600060c082840312156124bd57600080fd5b60405160c081016001600160401b03811182821017156124df576124df612024565b6040528251815260208301516124f481611efe565b602082015261250560408401612496565b604082015261251660608401612496565b606082015261252760808401612496565b608082015261253860a08401612496565b60a0820152939250505056fea26469706673582212203cc728b57bd5b7c548240365a79b47ab37765462cb9e1cf876c42e7864f48a5364736f6c63430008080033",
  "immutableReferences": {},
  "source": "pragma solidity >=0.8.0 <0.9.0;\n\nimport \"./StepChain.sol\";\n\ncontract SupplyChain {\n    string public productName;\n    address public owner;\n    address public seller;\n    address public buyer;\n    address public carrier;\n    address public certifier;\n    uint256 public funds;\n    uint256 public duration;\n    uint256 public price;\n    uint256 public carrierPrice;\n    mapping(address => uint256) public pendingWithdrawals;\n\n    address[] public precedentSupplyChains;\n\n\n\n    //Sign cnotract variables\n    bool public init= false;\n    bool public sellerFirm = false;\n    bool public carrierFirm = false;\n    bool public certifierFirm = false;\n\n\n    StepChain public stepChain;\n    //uint256 public minQuantity;\n    //uint256 public maxQuantity;\n    struct Product {\n        uint256 quantity;\n        address id;\n        bool coolChain;\n        bool certificate1;\n        bool certificate2;\n        bool finished;\n    }\n\n    uint256 public productCount;\n    Product[] public productList;\n\n    mapping(address => uint256) public productMapping;\n\n    constructor(\n        string memory _productName,\n        address _seller,\n        address _buyer,\n        address _carrier,\n        address _certifier,\n        uint256 _price,\n        uint256 _carrierPrice,\n        uint256 _duration,\n        address _stepChain\n    ) {\n        productName=_productName;\n        seller = _seller;\n        buyer = _buyer;\n        carrier = _carrier;\n        productCount = 0;\n        certifier = _certifier;\n        price = _price;\n        carrierPrice = _carrierPrice;\n        duration = _duration;\n        owner = msg.sender;\n        stepChain=StepChain(_stepChain);\n    }\n\n    function getProductList() external view returns (Product[] memory) {\n        return productList;\n    }\n    function getPrecedents() external view returns (address[] memory) {\n        return precedentSupplyChains;\n    }\n\n    function getProduct(address id) public view returns (Product memory) {\n        return productList[productMapping[id]];\n    }\n\n    function createProduct(uint256 _quantity,address[] memory _precedentProducts) public returns (address) {\n        require(_precedentProducts.length>=precedentSupplyChains.length,\"length incorrect\");\n        require(init==true,\"contract not initialized\");\n        require(msg.sender==seller,\"You are not the seller\");\n        address productId = address(\n            bytes20(keccak256(abi.encodePacked(msg.sender, block.timestamp)))\n        );\n        Product memory product = Product(\n            _quantity,\n            productId,\n            true,\n            false,\n            false,\n            false\n        );\n\n        //Comprueba que hay minimo un producto precedente por cadena de suministro precedente\n        bool[] memory hasPrecedent= new bool[](precedentSupplyChains.length);\n        uint256[] memory stepPrecedents = new uint256[](_precedentProducts.length);\n        for (uint256 i = 0; i < _precedentProducts.length; i++) {\n            for(uint256 j =0; j< precedentSupplyChains.length;j++)\n                if(isValidPrecedentProduct(_precedentProducts[i])==precedentSupplyChains[j])\n                    hasPrecedent[j]=true;\n            //require(isValidPrecedentProduct(_precedentProducts[i])!=address(0),\"Product not valid\");\n            stepPrecedents[i]=stepChain.lastSteps(_precedentProducts[i]);\n        }\n        for(uint256 j =0; j< precedentSupplyChains.length;j++){\n            require(hasPrecedent[j],\"More precedent products required\");\n        }\n\n        productList.push(product);\n        productMapping[productId] = productCount;\n        productCount++;\n\n        stepChain.newStep(productId, stepPrecedents, msg.sender, \"Creation\");\n        return productId;\n    }\n\n    function makeShipment(address _productId) public {\n        uint256[] memory _precedentProducts = new uint256[](1);\n        _precedentProducts[0] = stepChain.lastSteps(_productId);\n        stepChain.newStep(_productId, _precedentProducts, msg.sender, \"Shipment\");\n    }\n\n    function receiveShipment(address _productId) public {\n        uint256[] memory _precedentProducts = new uint256[](1);\n        _precedentProducts[0] = stepChain.lastSteps(_productId);\n        stepChain.newStep(_productId, _precedentProducts, msg.sender, \"Delivery\");\n        pendingWithdrawals[carrier] += carrierPrice;\n        pendingWithdrawals[buyer]-=carrierPrice;\n        uint256 _quantity = productList[productMapping[_productId]].quantity;\n        pendingWithdrawals[seller] += (_quantity * price);\n        pendingWithdrawals[buyer] -=(_quantity*price);\n        productList[productMapping[_productId]].finished = true;\n    }\n\n    function certify1(address _productId) public {\n        uint256[] memory _precedentProducts = new uint256[](1);\n        _precedentProducts[0] = stepChain.lastSteps(_productId);\n        productList[productMapping[_productId]].certificate1 = true;\n        stepChain.newStep(_productId, _precedentProducts, msg.sender, \"Certified 1\");\n    }\n\n    function certify2(address _productId) public {\n        uint256[] memory _precedentProducts = new uint256[](1);\n        _precedentProducts[0] = stepChain.lastSteps(_productId);\n        productList[productMapping[_productId]].certificate2 = true;\n        stepChain.newStep(_productId, _precedentProducts, msg.sender, \"Certified 2\");\n    }\n\n    function breakCoolChain(address _productId) public {\n        uint256[] memory _precedentProducts = new uint256[](1);\n        _precedentProducts[0] = stepChain.lastSteps(_productId);\n        productList[productMapping[_productId]].coolChain = false;\n        stepChain.newStep(\n            _productId,\n            _precedentProducts,\n            msg.sender,\n            \"Cool chain broken\"\n        );\n    }\n\n    function withdraw() public {\n        uint256 amount = pendingWithdrawals[msg.sender];\n        pendingWithdrawals[msg.sender] = 0;\n        payable(msg.sender).transfer(amount);\n    }\n\n    function addFunds() public payable {\n        require(msg.sender==buyer,\"Only buyer can add funds.\");\n        pendingWithdrawals[buyer]+=msg.value;\n    }\n\n//Change price functions\nuint256[] public newPriceArray = [0,0];\nfunction modifyPrice(uint256 newPrice) public {\n    require(msg.sender==seller || msg.sender ==buyer,\"Only seller or buyer can modify price.\" );\n\n    if(msg.sender==seller){\n        if(newPriceArray[1]!=0 && newPriceArray[1]==newPrice){\n            price=newPrice;\n            newPriceArray[0]=0;\n            newPriceArray[1]=0;\n        }\n        else{\n            newPriceArray[0]=newPrice;\n            newPriceArray[1]=0;\n        }\n    }\n    else if(msg.sender==buyer){\n        if(newPriceArray[0]!=0 && newPriceArray[0]==newPrice){\n            price=newPrice;\n            newPriceArray[0]=0;\n            newPriceArray[1]=0;\n        }\n        else{\n            newPriceArray[1]=newPrice;\n            newPriceArray[0]=0;\n        }\n    }\n\n}\n\n    function getBalance() public view returns (uint256){\n\n        if (msg.sender==buyer || msg.sender == owner)\n            return address(this).balance;\n        else\n            return pendingWithdrawals[msg.sender];\n\n    }\n\n//Firms functions\nfunction firmSeller() public {\n    require(msg.sender==seller);\n    sellerFirm=true;\n    initContract();\n}\n\nfunction firmCarrier() public {\n    require(msg.sender==carrier);\n    carrierFirm=true;\n    initContract();\n}\nfunction firmCertifier() public {\n    require(msg.sender==certifier);\n    certifierFirm=true;\n    initContract();\n}\n\nfunction initContract() private{\n    if(sellerFirm && carrierFirm && certifierFirm)\n        init=true;\n}\n\nfunction addPrecedents(address[] memory _precedentProducts) public{\n    require(msg.sender==seller);\n    precedentSupplyChains= _precedentProducts;\n}\n\nfunction isValidPrecedentProduct(address productId) private view returns(address supplyChainParent){\n    supplyChainParent=address(0);\nfor(uint i = 0; i<precedentSupplyChains.length; i++){\n SupplyChain supplyChain = SupplyChain(precedentSupplyChains[i]);\n if(supplyChain.productCount()>0 && supplyChain.getProduct(productId).id == productId && supplyChain.getProduct(productId).finished){\n    supplyChainParent=precedentSupplyChains[i];\n    break;\n }\n    \n}\n\n}\n}\n",
  "sourcePath": "C:\\Users\\WithoutName\\Documents\\TFG 3\\TFG-Cadena-Suministros\\truffle\\contracts\\SupplyChain.sol",
  "compiler": {
    "name": "solc",
    "version": "0.8.8+commit.dddeac2f.Emscripten.clang"
  },
  "schemaVersion": "3.4.12",
  "updatedAt": "2024-06-11T18:06:51.143Z",
  "networkType": "ethereum",
  "devdoc": {
    "kind": "dev",
    "methods": {},
    "version": 1
  },
  "userdoc": {
    "kind": "user",
    "methods": {},
    "version": 1
  }
}